S00F00005553425F4C43442E73726563F9
S11300001BC035C034C033C0EAC131C030C02FC0BA
S11300102EC02DC02CC017C142C129C028C027C082
S113002026C025C024C020204E6F20636F6E6E65ED
S11300306374696F6E20000011241FBECFE5D4E005
S1130040DEBFCDBF10E0A0E6B0E0E0EEF5E002C018
S113005005900D92A236B107D9F720E0A2E6B0E0F0
S113006001C01D92AB3CB207E1F7FAD1B7C2C8CFC9
S1130070AB9A82E08A95F1F700C0AB980895CF93CC
S1130080C82F662311F0A99A01C0A998AA98A49A26
S1130090A59A8A9A8B9A93989298AD98AC98CC2307
S11300A00CF4939AC6FD929AC5FDAD9AC4FDAC9A20
S11300B0DFDF93989298AD98AC98C3FD939AC2FDF4
S11300C0929AC1FDAD9AC0FDAC9AD2DFAC9AAD9ABA
S11300D0929A939ACF910895882311F0A99A01C016
S11300E0A998AA9AA498A5988A988B98AB9A82E022
S11300F08A95F1F700C09C9B02C080E101C080E0BA
S11301009D9980628299806483998068AB9892E01B
S11301109A95F1F700C0AB9A92E09A95F1F700C076
S11301209C9981609D99826082998460839988609A
S1130130AB98089580E0D0DF8823E4F38AE08A95C1
S1130140F1F700C080E0C8DF0895CF93C82FF2DF35
S113015060E08C2F94DFCF910895611103C0805823
S1130160F4DF0895613019F48054EFDF08956230AC
S113017019F48C56EADF08958C52E7DF089581E084
S1130180E4DF0895CF93C82FD5DFCA3099F48431C2
S113019048F090EC980F943138F084518C3230F060
S11301A080E005C080E403C084E101C084E5805898
S11301B0CCDF03C061E08C2F62DFCF910895CF9331
S11301C0DF93EC012196FC018491882331F0DADF7E
S11301D0FE01849121968111FACFDF91CF91089588
S11301E0CF93C82FA19AA29AA39AA49AA59A8A9A5D
S11301F08B9A8FEF9CE70197F1F700C00000AD9A4E
S1130200AC9A36DF8FE097E20197F1F700C0000067
S11302102FDF9AEA9A95F1F700C02ADF8AEA8A95D5
S1130220F1F700C0AC9824DF9AEA9A95F1F700C080
S113023088E28BDF88E089DFA2DF86E086DF8C2F0F
S113024084DFCF9108951F920F920FB60F9211245D
S11302502F938F939F93EF93FF938BB12CB18C715A
S1130260E0916400EF5FEF7390916300E91739F058
S1130270E0936400F0E0E959FF4F208301C082E07D
S113028090916200892B80936200FF91EF919F917E
S11302908F912F910F900FBE0F901F9018951F9262
S11302A00F920FB60F9211248F939F93EF93FF93A6
S11302B09091660080916500981761F0E091650067
S11302C0EF5FEF71E0936500F0E0E955FF4F808147
S11302D08CB901C05598FF91EF919F918F910F9028
S11302E00FBE0F901F901895109266001092650033
S11302F01092640010926300992314F422E02BB945
S1130300907890BD89B988E98AB986E880BD089556
S113031090916400809163009817A9F09091630014
S11303209F5F9F73E92FF0E0E959FF4F208180918F
S11303306200909363001092620090E0982F8827E7
S1130340820F911D089580E091E00895813021F09D
S113035050F0823061F0089585B5816085BD89B71C
S1130360806489BF089585B5887F85BD08951092FE
S1130370C9001092C8000895CF92DF92EF92FF92C5
S11303800F931F93CF93DF936C01062FF8DEF12CAC
S1130390D0E0E12C19C0D01780F4F601ED0FF11D67
S11303A010811A3011F4DF5F0BC0C43130F4DF5F09
S11303B06F2D8C2FD2DE812FE5DECF5FC53159F74B
S11303C0F39484E0F81611F0CE2DE5CFDF91CF91B0
S11303D01F910F91FF90EF90DF90CF9008951F929F
S11303E00F920FB60F9211242F938F939F938091A6
S11303F0C8009091C90001969093C9008093C800E9
S11304008091C8009091C90081159A4F70F0809135
S1130410CA0082608093CA001092C9001092C8007A
S11304208091CA008B7F8093CA0080916000909174
S1130430C700981710F4949A01C094988091C7004B
S11304408F5F823318F48093C70002C01092C700F4
S11304509F918F912F910F900FBE0F901F90189521
S1130460CF93DF93CDB7DEB7C855D1090FB6F89453
S1130470DEBF0FBECDBF83E390E036DF8CE0B0DE9D
S11304808C9A8091CA0082608093CA0081E05EDF0A
S1130490789410E003C010E001C010E08091CA001D
S11304A081FF0CC08091CA008D7F8093CA0067DEF3
S11304B060E080E052DE86E290E081DE29DF9C018C
S11304C02227232B59F79C0133272131310549F188
S11304D03CF42230310559F02330310579F03BC02A
S11304E02231310529F12F373105C9F034C080910B
S11304F0CA0081608093CA0010E0D0CF8091CA0006
S113050080FFC9CF82E022DF612FCE01019634DF64
S11305108091CA008E7F8093CA0010E0BFCF2FDE87
S1130520BDCF8091CA0084608093CA0010E0B6CF2A
S11305308091CA008B7F8093CA00CE018B5A9F4F53
S113054028D08093600069961CAE1DAE1EAE1FAE0F
S1130550699710E0A3CF2091CA0022FF0AC014308B
S113056098F4E5E5F0E0EC0FFD1FE10FF11D808349
S11305700BC02091CA0020FF07C0E1E0F0E0EC0FBF
S1130580FD1FE10FF11D8083143508F086CF1F5F36
S113059085CFFC0188279927E89421912032E9F33B
S11305A0293010F02E30C8F32B3239F02D3231F4CB
S11305B0689403C00BD0820F911D219120532A30DF
S11305C0C8F31EF4909581959F4F08957AE0979F04
S11305D0902D879F802D910D11240895F894FFCFBD
S10505E0FF0016
S9030000FC
